{
  "_format": "hh-sol-artifact-1",
  "contractName": "CPAMM",
  "sourceName": "contracts/CPAMM.sol",
  "abi": [
    {
      "inputs": [
        {
          "internalType": "address payable",
          "name": "_tokenizedSharesContract",
          "type": "address"
        }
      ],
      "stateMutability": "nonpayable",
      "type": "constructor"
    },
    {
      "anonymous": false,
      "inputs": [
        {
          "indexed": true,
          "internalType": "address",
          "name": "user",
          "type": "address"
        },
        {
          "indexed": true,
          "internalType": "address",
          "name": "token",
          "type": "address"
        },
        {
          "indexed": false,
          "internalType": "uint256",
          "name": "amount",
          "type": "uint256"
        },
        {
          "indexed": false,
          "internalType": "uint256",
          "name": "shares",
          "type": "uint256"
        }
      ],
      "name": "LiquidityAdded",
      "type": "event"
    },
    {
      "anonymous": false,
      "inputs": [
        {
          "indexed": true,
          "internalType": "address",
          "name": "user",
          "type": "address"
        },
        {
          "indexed": true,
          "internalType": "address",
          "name": "token",
          "type": "address"
        },
        {
          "indexed": false,
          "internalType": "uint256",
          "name": "amount",
          "type": "uint256"
        },
        {
          "indexed": false,
          "internalType": "uint256",
          "name": "shares",
          "type": "uint256"
        }
      ],
      "name": "LiquidityRemoved",
      "type": "event"
    },
    {
      "anonymous": false,
      "inputs": [
        {
          "indexed": true,
          "internalType": "address",
          "name": "user",
          "type": "address"
        },
        {
          "indexed": true,
          "internalType": "address",
          "name": "fromToken",
          "type": "address"
        },
        {
          "indexed": true,
          "internalType": "address",
          "name": "toToken",
          "type": "address"
        },
        {
          "indexed": false,
          "internalType": "uint256",
          "name": "amount",
          "type": "uint256"
        },
        {
          "indexed": false,
          "internalType": "uint256",
          "name": "time",
          "type": "uint256"
        }
      ],
      "name": "Swap",
      "type": "event"
    },
    {
      "inputs": [
        {
          "internalType": "uint256",
          "name": "_amount1",
          "type": "uint256"
        },
        {
          "internalType": "uint256",
          "name": "_amount2",
          "type": "uint256"
        },
        {
          "internalType": "address",
          "name": "token1Addr",
          "type": "address"
        },
        {
          "internalType": "address",
          "name": "token2Addr",
          "type": "address"
        }
      ],
      "name": "addLiquidity",
      "outputs": [
        {
          "internalType": "uint256",
          "name": "shares",
          "type": "uint256"
        }
      ],
      "stateMutability": "nonpayable",
      "type": "function"
    },
    {
      "inputs": [
        {
          "internalType": "address",
          "name": "token",
          "type": "address"
        }
      ],
      "name": "getReseves",
      "outputs": [
        {
          "internalType": "uint256",
          "name": "",
          "type": "uint256"
        }
      ],
      "stateMutability": "view",
      "type": "function"
    },
    {
      "inputs": [
        {
          "internalType": "uint256",
          "name": "_amountIn",
          "type": "uint256"
        },
        {
          "internalType": "uint256",
          "name": "_tokenInPrice",
          "type": "uint256"
        },
        {
          "internalType": "uint256",
          "name": "_tokenOutPrice",
          "type": "uint256"
        }
      ],
      "name": "getSwapAmount",
      "outputs": [
        {
          "internalType": "uint256",
          "name": "tokenOutAmt",
          "type": "uint256"
        },
        {
          "internalType": "uint256",
          "name": "tokenInAmt",
          "type": "uint256"
        },
        {
          "internalType": "uint256",
          "name": "amountOut",
          "type": "uint256"
        }
      ],
      "stateMutability": "view",
      "type": "function"
    },
    {
      "inputs": [
        {
          "internalType": "address",
          "name": "user",
          "type": "address"
        }
      ],
      "name": "getUserInfo",
      "outputs": [
        {
          "components": [
            {
              "internalType": "address",
              "name": "owner",
              "type": "address"
            },
            {
              "internalType": "address",
              "name": "token1",
              "type": "address"
            },
            {
              "internalType": "address",
              "name": "token2",
              "type": "address"
            },
            {
              "internalType": "uint256",
              "name": "token1Amt",
              "type": "uint256"
            },
            {
              "internalType": "uint256",
              "name": "token2Amt",
              "type": "uint256"
            },
            {
              "internalType": "uint256",
              "name": "shares",
              "type": "uint256"
            }
          ],
          "internalType": "struct CPAMM.UserInfo[]",
          "name": "",
          "type": "tuple[]"
        }
      ],
      "stateMutability": "view",
      "type": "function"
    },
    {
      "inputs": [
        {
          "internalType": "uint256",
          "name": "_shares",
          "type": "uint256"
        },
        {
          "internalType": "address",
          "name": "token1Addr",
          "type": "address"
        },
        {
          "internalType": "address",
          "name": "token2Addr",
          "type": "address"
        }
      ],
      "name": "removeLiquidity",
      "outputs": [
        {
          "internalType": "uint256",
          "name": "amount1",
          "type": "uint256"
        },
        {
          "internalType": "uint256",
          "name": "amount2",
          "type": "uint256"
        }
      ],
      "stateMutability": "nonpayable",
      "type": "function"
    },
    {
      "inputs": [
        {
          "internalType": "address",
          "name": "",
          "type": "address"
        }
      ],
      "name": "reserves",
      "outputs": [
        {
          "internalType": "uint256",
          "name": "",
          "type": "uint256"
        }
      ],
      "stateMutability": "view",
      "type": "function"
    },
    {
      "inputs": [
        {
          "internalType": "address",
          "name": "tokenIn",
          "type": "address"
        },
        {
          "internalType": "uint256",
          "name": "amountIn",
          "type": "uint256"
        },
        {
          "internalType": "address",
          "name": "tokenOut",
          "type": "address"
        },
        {
          "internalType": "uint256",
          "name": "tokenInPrice",
          "type": "uint256"
        },
        {
          "internalType": "uint256",
          "name": "tokenOutPrice",
          "type": "uint256"
        },
        {
          "internalType": "uint256",
          "name": "exchangeRate",
          "type": "uint256"
        }
      ],
      "name": "swap",
      "outputs": [],
      "stateMutability": "nonpayable",
      "type": "function"
    },
    {
      "inputs": [],
      "name": "tokenizedSharesContract",
      "outputs": [
        {
          "internalType": "contract TokenizedShares",
          "name": "",
          "type": "address"
        }
      ],
      "stateMutability": "view",
      "type": "function"
    },
    {
      "inputs": [],
      "name": "totalSupply",
      "outputs": [
        {
          "internalType": "uint256",
          "name": "",
          "type": "uint256"
        }
      ],
      "stateMutability": "view",
      "type": "function"
    }
  ],
  "bytecode": "0x608060405260fa60005534801561001557600080fd5b50604051611a6b380380611a6b83398101604081905261003491610059565b600480546001600160a01b0319166001600160a01b0392909216919091179055610089565b60006020828403121561006b57600080fd5b81516001600160a01b038116811461008257600080fd5b9392505050565b6119d3806100986000396000f3fe608060405234801561001057600080fd5b50600436106100935760003560e01c8063653d588d11610066578063653d588d1461012b5780638dcc91db1461013e578063a3e7e5f414610169578063d66bd5241461017e578063f31abcc41461019e57600080fd5b806318160ddd146100985780632e04161b146100b457806345cf2ef6146100dd5780636386c1c71461010b575b600080fd5b6100a160035481565b6040519081526020015b60405180910390f35b6100a16100c236600461158a565b6001600160a01b031660009081526002602052604090205490565b6100f06100eb3660046115a7565b6101c6565b604080519384526020840192909252908201526060016100ab565b61011e61011936600461158a565b6102f1565b6040516100ab91906115d3565b6100a1610139366004611659565b6104fd565b600454610151906001600160a01b031681565b6040516001600160a01b0390911681526020016100ab565b61017c6101773660046116a3565b610a7b565b005b6100a161018c36600461158a565b60026020526000908152604090205481565b6101b16101ac3660046116ff565b610e00565b604080519283526020830191909152016100ab565b600080600080861161020b5760405162461bcd60e51b81526020600482015260096024820152680616d74496e203d20360bc1b60448201526064015b60405180910390fd5b6004805460405163334f245560e11b8152918201889052602482018790526001600160a01b03169063669e48aa90604401602060405180830381865afa158015610259573d6000803e3d6000fd5b505050506040513d601f19601f8201168201806040525081019061027d9190611741565b91506127106000546127106102929190611770565b61029c9088611787565b6102a691906117a6565b9050836102b38684611787565b6102bd91906117a6565b92506127106000546127106102d29190611770565b6102dc9085611787565b6102e691906117a6565b925093509350939050565b6001600160a01b0381166000908152600160205260408120606091805b825481101561037357846001600160a01b0316838281548110610333576103336117c8565b60009182526020909120600690910201546001600160a01b03161415610361578161035d816117de565b9250505b8061036b816117de565b91505061030e565b5060008167ffffffffffffffff81111561038f5761038f6117f9565b6040519080825280602002602001820160405280156103ef57816020015b6040805160c08101825260008082526020808301829052928201819052606082018190526080820181905260a082015282526000199092019101816103ad5790505b5090506000805b84548110156104f257866001600160a01b031685828154811061041b5761041b6117c8565b60009182526020909120600690910201546001600160a01b031614156104e05784818154811061044d5761044d6117c8565b60009182526020918290206040805160c081018252600690930290910180546001600160a01b0390811684526001820154811694840194909452600281015490931690820152600382015460608201526004820154608082015260059091015460a082015283518490849081106104c6576104c66117c8565b602002602001018190525081806104dc906117de565b9250505b806104ea816117de565b9150506103f6565b509095945050505050565b6040516323b872dd60e01b8152336004820152306024820152604481018590526000906001600160a01b038416906323b872dd906064016020604051808303816000875af1158015610553573d6000803e3d6000fd5b505050506040513d601f19601f82011682018060405250810190610577919061180f565b506040516323b872dd60e01b8152336004820152306024820152604481018590526001600160a01b038316906323b872dd906064016020604051808303816000875af11580156105cb573d6000803e3d6000fd5b505050506040513d601f19601f820116820180604052508101906105ef919061180f565b5060026020526001600160a01b0383166000908152604081208054879290610618908490611831565b90915550506001600160a01b03821660009081526002602052604081208054869290610645908490611831565b909155505060035461066a5761066361065e8587611787565b6112a9565b9050610767565b6001600160a01b0383166000908152600260205260409020546106b7576001600160a01b0382166000908152600260205260409020546003546106ad9086611787565b61066391906117a6565b6001600160a01b0382166000908152600260205260409020546106fa576001600160a01b0383166000908152600260205260409020546003546106ad9087611787565b6001600160a01b03831660009081526002602052604090205460035461076491906107259088611787565b61072f91906117a6565b6001600160a01b0384166000908152600260205260409020546003546107559088611787565b61075f91906117a6565b611319565b90505b33600090815260016020526040812090805b82548110156108cb57856001600160a01b031683828154811061079e5761079e6117c8565b60009182526020909120600160069092020101546001600160a01b03161480156107fe5750846001600160a01b03168382815481106107df576107df6117c8565b60009182526020909120600260069092020101546001600160a01b0316145b156108b95787838281548110610816576108166117c8565b906000526020600020906006020160030160008282546108369190611831565b9250508190555086838281548110610850576108506117c8565b906000526020600020906006020160040160008282546108709190611831565b925050819055508383828154811061088a5761088a6117c8565b906000526020600020906006020160050160008282546108aa9190611831565b90915550600192506108cb9050565b806108c3816117de565b915050610779565b508061097f576040805160c0810182523381526001600160a01b038781166020808401918252888316948401948552606084018c8152608085018c815260a086018a8152895460018181018c5560008c8152959095209751600690910290970180549787166001600160a01b03199889161781559451938501805494871694881694909417909355955160028401805491909516951694909417909255915160038301559151600482015590516005909101555b82600360008282546109919190611831565b90915550506040516370a0823160e01b8152306004820152610a71906001600160a01b038716906370a0823190602401602060405180830381865afa1580156109de573d6000803e3d6000fd5b505050506040513d601f19601f82011682018060405250810190610a029190611741565b6040516370a0823160e01b81523060048201526001600160a01b038716906370a0823190602401602060405180830381865afa158015610a46573d6000803e3d6000fd5b505050506040513d601f19601f82011682018060405250810190610a6a9190611741565b8787611332565b5050949350505050565b60008511610ab75760405162461bcd60e51b81526020600482015260096024820152680616d74496e203d20360bc1b6044820152606401610202565b6004805460405163ba0cb22b60e01b815233928101929092526000916001600160a01b039091169063ba0cb22b90602401600060405180830381865afa158015610b05573d6000803e3d6000fd5b505050506040513d6000823e601f3d908101601f19168201604052610b2d91908101906118a3565b905060005b8151811015610d1b576000828281518110610b4f57610b4f6117c8565b60200260200101519050600081602001516001600160a01b03168a6001600160a01b03161415610b9a5760608201516040830151610b8d9089611787565b610b9791906117a6565b90505b81602001516001600160a01b03168a6001600160a01b0316148015610bbe57508089145b15610c5257610bd0898389898c61135b565b60048054600054604051633cb665e560e11b81529283018c90526024830152604482018790526001600160a01b03169063796ccbca906064016020604051808303816000875af1158015610c28573d6000803e3d6000fd5b505050506040513d601f19601f82011682018060405250810190610c4c9190611741565b50610d06565b81602001516001600160a01b03168a6001600160a01b0316148015610c7657508089105b15610d0657610c88898389898c61135b565b60048054600054604051633cb665e560e11b81529283018c90526024830152604482018790526001600160a01b03169063796ccbca906064016020604051808303816000875af1158015610ce0573d6000803e3d6000fd5b505050506040513d601f19601f82011682018060405250810190610d049190611741565b505b50508080610d13906117de565b915050610b32565b506040516370a0823160e01b8152306004820152610df7906001600160a01b038916906370a0823190602401602060405180830381865afa158015610d64573d6000803e3d6000fd5b505050506040513d601f19601f82011682018060405250810190610d889190611741565b6040516370a0823160e01b81523060048201526001600160a01b038816906370a0823190602401602060405180830381865afa158015610dcc573d6000803e3d6000fd5b505050506040513d601f19601f82011682018060405250810190610df09190611741565b8988611332565b50505050505050565b336000908152600160205260408120819081805b8254811015610eb857866001600160a01b0316838281548110610e3957610e396117c8565b60009182526020909120600160069092020101546001600160a01b0316148015610e995750856001600160a01b0316838281548110610e7a57610e7a6117c8565b60009182526020909120600260069092020101546001600160a01b0316145b15610ea657809150610eb8565b80610eb0816117de565b915050610e14565b5060008711610f015760405162461bcd60e51b8152602060048201526015602482015274125b9d985b1a59081cda185c995cc8185b5bdd5b9d605a1b6044820152606401610202565b81548110610f415760405162461bcd60e51b815260206004820152600d60248201526c092dcecc2d8d2c840d2dcc8caf609b1b6044820152606401610202565b6000828281548110610f5557610f556117c8565b9060005260206000209060060201905087816005015414610fb05760405162461bcd60e51b8152602060048201526015602482015274125b9d985b1a59081cda185c995cc8185b5bdd5b9d605a1b6044820152606401610202565b6040516370a0823160e01b81523060048201526000906001600160a01b038916906370a0823190602401602060405180830381865afa158015610ff7573d6000803e3d6000fd5b505050506040513d601f19601f8201168201806040525081019061101b9190611741565b6040516370a0823160e01b81523060048201529091506000906001600160a01b038916906370a0823190602401602060405180830381865afa158015611065573d6000803e3d6000fd5b505050506040513d601f19601f820116820180604052508101906110899190611741565b600354909150611099838c611787565b6110a391906117a6565b6003549097506110b3828c611787565b6110bd91906117a6565b95506000871180156110cf5750600086115b61110e5760405162461bcd60e51b815260206004820152601060248201526f0616d7431206f7220616d7432203d20360841b6044820152606401610202565b89836005015414156111825733600090815260016020526040902080548590811061113b5761113b6117c8565b60009182526020822060069091020180546001600160a01b031990811682556001820180548216905560028201805490911690556003810182905560048101829055600501555b89600360008282546111949190611770565b909155506111b890506111a78884611770565b6111b18884611770565b8b8b611332565b60405163a9059cbb60e01b8152336004820152602481018890526001600160a01b038a169063a9059cbb906044016020604051808303816000875af1158015611205573d6000803e3d6000fd5b505050506040513d601f19601f82011682018060405250810190611229919061180f565b5060405163a9059cbb60e01b8152336004820152602481018790526001600160a01b0389169063a9059cbb906044016020604051808303816000875af1158015611277573d6000803e3d6000fd5b505050506040513d601f19601f8201168201806040525081019061129b919061180f565b505050505050935093915050565b6000600382111561130a57508060006112c36002836117a6565b6112ce906001611831565b90505b81811015611304579050806002816112e981866117a6565b6112f39190611831565b6112fd91906117a6565b90506112d1565b50919050565b8115611314575060015b919050565b600081831115611329578161132b565b825b9392505050565b6001600160a01b0391821660009081526002602052604080822095909555911681529190912055565b600080600061136b8887876101c6565b6004805460208c015160405163a92a509f60e01b81523393810193909352602483018e905260448301849052606483018590526084830186905260a483018c905260c483018b90526001600160a01b0390811660e484015289811661010484015294975092955090935091169063a92a509f9061012401600060405180830381600087803b1580156113fc57600080fd5b505af1158015611410573d6000803e3d6000fd5b50505060208801516040516323b872dd60e01b8152336004820152306024820152604481018590526001600160a01b0390911691506323b872dd906064016020604051808303816000875af115801561146d573d6000803e3d6000fd5b505050506040513d601f19601f82011682018060405250810190611491919061180f565b5060405163a9059cbb60e01b8152336004820152602481018490526001600160a01b0385169063a9059cbb906044016020604051808303816000875af11580156114df573d6000803e3d6000fd5b505050506040513d601f19601f82011682018060405250810190611503919061180f565b50836001600160a01b031687602001516001600160a01b0316336001600160a01b03167fcd3829a3813dc3cdd188fd3d01dcf3268c16be2fdd2dd21d0665418816e460628442604051611560929190918252602082015260400190565b60405180910390a45050505050505050565b6001600160a01b038116811461158757600080fd5b50565b60006020828403121561159c57600080fd5b813561132b81611572565b6000806000606084860312156115bc57600080fd5b505081359360208301359350604090920135919050565b602080825282518282018190526000919060409081850190868401855b8281101561164c57815180516001600160a01b03908116865287820151811688870152868201511686860152606080820151908601526080808201519086015260a0908101519085015260c090930192908501906001016115f0565b5091979650505050505050565b6000806000806080858703121561166f57600080fd5b8435935060208501359250604085013561168881611572565b9150606085013561169881611572565b939692955090935050565b60008060008060008060c087890312156116bc57600080fd5b86356116c781611572565b95506020870135945060408701356116de81611572565b959894975094956060810135955060808101359460a0909101359350915050565b60008060006060848603121561171457600080fd5b83359250602084013561172681611572565b9150604084013561173681611572565b809150509250925092565b60006020828403121561175357600080fd5b5051919050565b634e487b7160e01b600052601160045260246000fd5b6000828210156117825761178261175a565b500390565b60008160001904831182151516156117a1576117a161175a565b500290565b6000826117c357634e487b7160e01b600052601260045260246000fd5b500490565b634e487b7160e01b600052603260045260246000fd5b60006000198214156117f2576117f261175a565b5060010190565b634e487b7160e01b600052604160045260246000fd5b60006020828403121561182157600080fd5b8151801515811461132b57600080fd5b600082198211156118445761184461175a565b500190565b60405160a0810167ffffffffffffffff8111828210171561186c5761186c6117f9565b60405290565b604051601f8201601f1916810167ffffffffffffffff8111828210171561189b5761189b6117f9565b604052919050565b600060208083850312156118b657600080fd5b825167ffffffffffffffff808211156118ce57600080fd5b818501915085601f8301126118e257600080fd5b8151818111156118f4576118f46117f9565b611902848260051b01611872565b818152848101925060a091820284018501918883111561192157600080fd5b938501935b828510156119915780858a03121561193e5760008081fd5b611946611849565b855161195181611572565b81528587015161196081611572565b8188015260408681015190820152606080870151908201526080808701519082015284529384019392850192611926565b5097965050505050505056fea264697066735822122085c4b1d901a5e886113360e2c470bc755ccd2aa1edad4a72e9711b0f1ed0bdad64736f6c634300080a0033",
  "linkReferences": {},
  "deployedLinkReferences": {}
}