{
  "_format": "hh-sol-artifact-1",
  "contractName": "CPAMM",
  "sourceName": "contracts/CPAMM.sol",
  "abi": [
    {
      "anonymous": false,
      "inputs": [
        {
          "indexed": false,
          "internalType": "uint8",
          "name": "version",
          "type": "uint8"
        }
      ],
      "name": "Initialized",
      "type": "event"
    },
    {
      "anonymous": false,
      "inputs": [
        {
          "indexed": true,
          "internalType": "address",
          "name": "user",
          "type": "address"
        },
        {
          "indexed": true,
          "internalType": "address",
          "name": "token",
          "type": "address"
        },
        {
          "indexed": false,
          "internalType": "uint256",
          "name": "amount",
          "type": "uint256"
        },
        {
          "indexed": false,
          "internalType": "uint256",
          "name": "shares",
          "type": "uint256"
        }
      ],
      "name": "LiquidityAdded",
      "type": "event"
    },
    {
      "anonymous": false,
      "inputs": [
        {
          "indexed": true,
          "internalType": "address",
          "name": "user",
          "type": "address"
        },
        {
          "indexed": true,
          "internalType": "address",
          "name": "token",
          "type": "address"
        },
        {
          "indexed": false,
          "internalType": "uint256",
          "name": "amount",
          "type": "uint256"
        },
        {
          "indexed": false,
          "internalType": "uint256",
          "name": "shares",
          "type": "uint256"
        }
      ],
      "name": "LiquidityRemoved",
      "type": "event"
    },
    {
      "anonymous": false,
      "inputs": [
        {
          "indexed": true,
          "internalType": "address",
          "name": "user",
          "type": "address"
        },
        {
          "indexed": true,
          "internalType": "address",
          "name": "fromToken",
          "type": "address"
        },
        {
          "indexed": true,
          "internalType": "address",
          "name": "toToken",
          "type": "address"
        },
        {
          "indexed": false,
          "internalType": "uint256",
          "name": "amount",
          "type": "uint256"
        },
        {
          "indexed": false,
          "internalType": "uint256",
          "name": "time",
          "type": "uint256"
        }
      ],
      "name": "Swap",
      "type": "event"
    },
    {
      "inputs": [
        {
          "internalType": "address",
          "name": "_tokenizedSharesContract",
          "type": "address"
        }
      ],
      "name": "InIt",
      "outputs": [],
      "stateMutability": "nonpayable",
      "type": "function"
    },
    {
      "inputs": [
        {
          "internalType": "uint256",
          "name": "_amount1",
          "type": "uint256"
        },
        {
          "internalType": "uint256",
          "name": "_amount2",
          "type": "uint256"
        },
        {
          "internalType": "address",
          "name": "token1Addr",
          "type": "address"
        },
        {
          "internalType": "address",
          "name": "token2Addr",
          "type": "address"
        }
      ],
      "name": "addLiquidity",
      "outputs": [
        {
          "internalType": "uint256",
          "name": "shares",
          "type": "uint256"
        }
      ],
      "stateMutability": "nonpayable",
      "type": "function"
    },
    {
      "inputs": [
        {
          "internalType": "address",
          "name": "token",
          "type": "address"
        }
      ],
      "name": "getReseves",
      "outputs": [
        {
          "internalType": "uint256",
          "name": "",
          "type": "uint256"
        }
      ],
      "stateMutability": "view",
      "type": "function"
    },
    {
      "inputs": [
        {
          "internalType": "uint256",
          "name": "_amountIn",
          "type": "uint256"
        },
        {
          "internalType": "uint256",
          "name": "_tokenInPrice",
          "type": "uint256"
        },
        {
          "internalType": "uint256",
          "name": "_tokenOutPrice",
          "type": "uint256"
        },
        {
          "internalType": "uint256",
          "name": "selectedFee",
          "type": "uint256"
        }
      ],
      "name": "getSwapAmount",
      "outputs": [
        {
          "internalType": "uint256",
          "name": "tokenOutAmt",
          "type": "uint256"
        },
        {
          "internalType": "uint256",
          "name": "tokenInAmt",
          "type": "uint256"
        },
        {
          "internalType": "uint256",
          "name": "amountOut",
          "type": "uint256"
        }
      ],
      "stateMutability": "view",
      "type": "function"
    },
    {
      "inputs": [
        {
          "internalType": "address",
          "name": "user",
          "type": "address"
        }
      ],
      "name": "getUserInfo",
      "outputs": [
        {
          "components": [
            {
              "internalType": "address",
              "name": "owner",
              "type": "address"
            },
            {
              "internalType": "address",
              "name": "token1",
              "type": "address"
            },
            {
              "internalType": "address",
              "name": "token2",
              "type": "address"
            },
            {
              "internalType": "uint256",
              "name": "token1Amt",
              "type": "uint256"
            },
            {
              "internalType": "uint256",
              "name": "token2Amt",
              "type": "uint256"
            },
            {
              "internalType": "uint256",
              "name": "shares",
              "type": "uint256"
            }
          ],
          "internalType": "struct CPAMM.UserInfo[]",
          "name": "",
          "type": "tuple[]"
        }
      ],
      "stateMutability": "view",
      "type": "function"
    },
    {
      "inputs": [],
      "name": "initial",
      "outputs": [],
      "stateMutability": "nonpayable",
      "type": "function"
    },
    {
      "inputs": [
        {
          "internalType": "uint256",
          "name": "_shares",
          "type": "uint256"
        },
        {
          "internalType": "address",
          "name": "token1Addr",
          "type": "address"
        },
        {
          "internalType": "address",
          "name": "token2Addr",
          "type": "address"
        }
      ],
      "name": "removeLiquidity",
      "outputs": [
        {
          "internalType": "uint256",
          "name": "amount1",
          "type": "uint256"
        },
        {
          "internalType": "uint256",
          "name": "amount2",
          "type": "uint256"
        }
      ],
      "stateMutability": "nonpayable",
      "type": "function"
    },
    {
      "inputs": [
        {
          "internalType": "address",
          "name": "",
          "type": "address"
        }
      ],
      "name": "reserves",
      "outputs": [
        {
          "internalType": "uint256",
          "name": "",
          "type": "uint256"
        }
      ],
      "stateMutability": "view",
      "type": "function"
    },
    {
      "inputs": [
        {
          "internalType": "address",
          "name": "tokenIn",
          "type": "address"
        },
        {
          "internalType": "uint256",
          "name": "amountIn",
          "type": "uint256"
        },
        {
          "internalType": "address",
          "name": "tokenOut",
          "type": "address"
        },
        {
          "internalType": "uint256",
          "name": "tokenInPrice",
          "type": "uint256"
        },
        {
          "internalType": "uint256",
          "name": "tokenOutPrice",
          "type": "uint256"
        },
        {
          "internalType": "uint256",
          "name": "exchangeRate",
          "type": "uint256"
        },
        {
          "internalType": "uint256",
          "name": "selectedFee",
          "type": "uint256"
        }
      ],
      "name": "swap",
      "outputs": [],
      "stateMutability": "nonpayable",
      "type": "function"
    },
    {
      "inputs": [],
      "name": "tokenizedSharesContract",
      "outputs": [
        {
          "internalType": "contract TokenizedShares",
          "name": "",
          "type": "address"
        }
      ],
      "stateMutability": "view",
      "type": "function"
    },
    {
      "inputs": [],
      "name": "totalSupply",
      "outputs": [
        {
          "internalType": "uint256",
          "name": "",
          "type": "uint256"
        }
      ],
      "stateMutability": "view",
      "type": "function"
    }
  ],
  "bytecode": "0x608060405234801561001057600080fd5b50611be7806100206000396000f3fe608060405234801561001057600080fd5b50600436106100a95760003560e01c8063653d588d11610071578063653d588d1461013b5780638dcc91db1461014e578063bb806dc914610179578063cf55669714610181578063d66bd524146101af578063f31abcc4146101cf57600080fd5b80630d72f0e0146100ae57806318160ddd146100c3578063229574b3146100df5780632e04161b146100f25780636386c1c71461011b575b600080fd5b6100c16100bc366004611741565b6101f7565b005b6100cc60045481565b6040519081526020015b60405180910390f35b6100c16100ed3660046117a6565b610581565b6100cc6101003660046117a6565b6001600160a01b031660009081526003602052604090205490565b61012e6101293660046117a6565b61065f565b6040516100d691906117c3565b6100cc610149366004611849565b61086b565b600554610161906001600160a01b031681565b6040516001600160a01b0390911681526020016100d6565b6100c1610de9565b61019461018f366004611893565b610eaf565b604080519384526020840192909252908201526060016100d6565b6100cc6101bd3660046117a6565b60036020526000908152604090205481565b6101e26101dd3660046118c5565b610fcc565b604080519283526020830191909152016100d6565b600086116102385760405162461bcd60e51b81526020600482015260096024820152680616d74496e203d20360bc1b60448201526064015b60405180910390fd5b60055460405163ba0cb22b60e01b81523360048201526000916001600160a01b03169063ba0cb22b90602401600060405180830381865afa158015610281573d6000803e3d6000fd5b505050506040513d6000823e601f3d908101601f191682016040526102a99190810190611977565b905060005b815181101561049b5760008282815181106102cb576102cb611a71565b60200260200101519050600081602001516001600160a01b03168b6001600160a01b031614156103165760608201516040830151610309908a611a9d565b6103139190611abc565b90505b81602001516001600160a01b03168b6001600160a01b031614801561033a5750808a145b156103d05761034d8a838a8a8d8a611475565b600554604051633cb665e560e11b8152600481018c905260248101879052604481018890526001600160a01b039091169063796ccbca906064016020604051808303816000875af11580156103a6573d6000803e3d6000fd5b505050506040513d601f19601f820116820180604052508101906103ca9190611ade565b50610486565b81602001516001600160a01b03168b6001600160a01b03161480156103f45750808a105b15610486576104078a838a8a8d8a611475565b600554604051633cb665e560e11b8152600481018c905260248101879052604481018890526001600160a01b039091169063796ccbca906064016020604051808303816000875af1158015610460573d6000803e3d6000fd5b505050506040513d601f19601f820116820180604052508101906104849190611ade565b505b5050808061049390611af7565b9150506102ae565b506040516370a0823160e01b8152306004820152610577906001600160a01b038a16906370a0823190602401602060405180830381865afa1580156104e4573d6000803e3d6000fd5b505050506040513d601f19601f820116820180604052508101906105089190611ade565b6040516370a0823160e01b81523060048201526001600160a01b038916906370a0823190602401602060405180830381865afa15801561054c573d6000803e3d6000fd5b505050506040513d601f19601f820116820180604052508101906105709190611ade565b8a8961167a565b5050505050505050565b600054610100900460ff16158080156105a15750600054600160ff909116105b806105bb5750303b1580156105bb575060005460ff166001145b6105d75760405162461bcd60e51b815260040161022f90611b12565b6000805460ff1916600117905580156105fa576000805461ff0019166101001790555b600580546001600160a01b0319166001600160a01b038416179055801561065b576000805461ff0019169055604051600181527f7f26b83ff96e1f2b6a682f133852f6798a09c465da95921460cefb38474024989060200160405180910390a15b5050565b6001600160a01b0381166000908152600260205260408120606091805b82548110156106e157846001600160a01b03168382815481106106a1576106a1611a71565b60009182526020909120600690910201546001600160a01b031614156106cf57816106cb81611af7565b9250505b806106d981611af7565b91505061067c565b5060008167ffffffffffffffff8111156106fd576106fd611907565b60405190808252806020026020018201604052801561075d57816020015b6040805160c08101825260008082526020808301829052928201819052606082018190526080820181905260a0820152825260001990920191018161071b5790505b5090506000805b845481101561086057866001600160a01b031685828154811061078957610789611a71565b60009182526020909120600690910201546001600160a01b0316141561084e578481815481106107bb576107bb611a71565b60009182526020918290206040805160c081018252600690930290910180546001600160a01b0390811684526001820154811694840194909452600281015490931690820152600382015460608201526004820154608082015260059091015460a0820152835184908490811061083457610834611a71565b6020026020010181905250818061084a90611af7565b9250505b8061085881611af7565b915050610764565b509095945050505050565b6040516323b872dd60e01b8152336004820152306024820152604481018590526000906001600160a01b038416906323b872dd906064016020604051808303816000875af11580156108c1573d6000803e3d6000fd5b505050506040513d601f19601f820116820180604052508101906108e59190611b60565b506040516323b872dd60e01b8152336004820152306024820152604481018590526001600160a01b038316906323b872dd906064016020604051808303816000875af1158015610939573d6000803e3d6000fd5b505050506040513d601f19601f8201168201806040525081019061095d9190611b60565b5060036020526001600160a01b0383166000908152604081208054879290610986908490611b82565b90915550506001600160a01b038216600090815260036020526040812080548692906109b3908490611b82565b90915550506004546109d8576109d16109cc8587611a9d565b6116a3565b9050610ad5565b6001600160a01b038316600090815260036020526040902054610a25576001600160a01b038216600090815260036020526040902054600454610a1b9086611a9d565b6109d19190611abc565b6001600160a01b038216600090815260036020526040902054610a68576001600160a01b038316600090815260036020526040902054600454610a1b9087611a9d565b6001600160a01b038316600090815260036020526040902054600454610ad29190610a939088611a9d565b610a9d9190611abc565b6001600160a01b038416600090815260036020526040902054600454610ac39088611a9d565b610acd9190611abc565b611713565b90505b33600090815260026020526040812090805b8254811015610c3957856001600160a01b0316838281548110610b0c57610b0c611a71565b60009182526020909120600160069092020101546001600160a01b0316148015610b6c5750846001600160a01b0316838281548110610b4d57610b4d611a71565b60009182526020909120600260069092020101546001600160a01b0316145b15610c275787838281548110610b8457610b84611a71565b90600052602060002090600602016003016000828254610ba49190611b82565b9250508190555086838281548110610bbe57610bbe611a71565b90600052602060002090600602016004016000828254610bde9190611b82565b9250508190555083838281548110610bf857610bf8611a71565b90600052602060002090600602016005016000828254610c189190611b82565b9091555060019250610c399050565b80610c3181611af7565b915050610ae7565b5080610ced576040805160c0810182523381526001600160a01b038781166020808401918252888316948401948552606084018c8152608085018c815260a086018a8152895460018181018c5560008c8152959095209751600690910290970180549787166001600160a01b03199889161781559451938501805494871694881694909417909355955160028401805491909516951694909417909255915160038301559151600482015590516005909101555b8260046000828254610cff9190611b82565b90915550506040516370a0823160e01b8152306004820152610ddf906001600160a01b038716906370a0823190602401602060405180830381865afa158015610d4c573d6000803e3d6000fd5b505050506040513d601f19601f82011682018060405250810190610d709190611ade565b6040516370a0823160e01b81523060048201526001600160a01b038716906370a0823190602401602060405180830381865afa158015610db4573d6000803e3d6000fd5b505050506040513d601f19601f82011682018060405250810190610dd89190611ade565b878761167a565b5050949350505050565b600054610100900460ff1615808015610e095750600054600160ff909116105b80610e235750303b158015610e23575060005460ff166001145b610e3f5760405162461bcd60e51b815260040161022f90611b12565b6000805460ff191660011790558015610e62576000805461ff0019166101001790555b600180558015610eac576000805461ff0019169055604051600181527f7f26b83ff96e1f2b6a682f133852f6798a09c465da95921460cefb38474024989060200160405180910390a15b50565b6000806000808711610eef5760405162461bcd60e51b81526020600482015260096024820152680616d74496e203d20360bc1b604482015260640161022f565b60055460405163334f245560e11b815260048101899052602481018890526001600160a01b039091169063669e48aa90604401602060405180830381865afa158015610f3f573d6000803e3d6000fd5b505050506040513d601f19601f82011682018060405250810190610f639190611ade565b9150612710610f728582611b9a565b610f7c9089611a9d565b610f869190611abc565b905084610f938784611a9d565b610f9d9190611abc565b9250612710610fac8582611b9a565b610fb69085611a9d565b610fc09190611abc565b92509450945094915050565b336000908152600260205260408120819081805b825481101561108457866001600160a01b031683828154811061100557611005611a71565b60009182526020909120600160069092020101546001600160a01b03161480156110655750856001600160a01b031683828154811061104657611046611a71565b60009182526020909120600260069092020101546001600160a01b0316145b1561107257809150611084565b8061107c81611af7565b915050610fe0565b50600087116110cd5760405162461bcd60e51b8152602060048201526015602482015274125b9d985b1a59081cda185c995cc8185b5bdd5b9d605a1b604482015260640161022f565b8154811061110d5760405162461bcd60e51b815260206004820152600d60248201526c092dcecc2d8d2c840d2dcc8caf609b1b604482015260640161022f565b600082828154811061112157611121611a71565b906000526020600020906006020190508781600501541461117c5760405162461bcd60e51b8152602060048201526015602482015274125b9d985b1a59081cda185c995cc8185b5bdd5b9d605a1b604482015260640161022f565b6040516370a0823160e01b81523060048201526000906001600160a01b038916906370a0823190602401602060405180830381865afa1580156111c3573d6000803e3d6000fd5b505050506040513d601f19601f820116820180604052508101906111e79190611ade565b6040516370a0823160e01b81523060048201529091506000906001600160a01b038916906370a0823190602401602060405180830381865afa158015611231573d6000803e3d6000fd5b505050506040513d601f19601f820116820180604052508101906112559190611ade565b600454909150611265838c611a9d565b61126f9190611abc565b60045490975061127f828c611a9d565b6112899190611abc565b955060008711801561129b5750600086115b6112da5760405162461bcd60e51b815260206004820152601060248201526f0616d7431206f7220616d7432203d20360841b604482015260640161022f565b898360050154141561134e5733600090815260026020526040902080548590811061130757611307611a71565b60009182526020822060069091020180546001600160a01b031990811682556001820180548216905560028201805490911690556003810182905560048101829055600501555b89600460008282546113609190611b9a565b9091555061138490506113738884611b9a565b61137d8884611b9a565b8b8b61167a565b60405163a9059cbb60e01b8152336004820152602481018890526001600160a01b038a169063a9059cbb906044016020604051808303816000875af11580156113d1573d6000803e3d6000fd5b505050506040513d601f19601f820116820180604052508101906113f59190611b60565b5060405163a9059cbb60e01b8152336004820152602481018790526001600160a01b0389169063a9059cbb906044016020604051808303816000875af1158015611443573d6000803e3d6000fd5b505050506040513d601f19601f820116820180604052508101906114679190611b60565b505050505050935093915050565b600080600061148689888887610eaf565b60055460208c0151604051630c621f7f60e21b8152336004820152602481018f905260448101849052606481018d9052608481018c90526001600160a01b0391821660a48201528a821660c482015294975092955090935016906331887dfc9060e401600060405180830381600087803b15801561150357600080fd5b505af1158015611517573d6000803e3d6000fd5b50505060208901516040516323b872dd60e01b8152336004820152306024820152604481018590526001600160a01b0390911691506323b872dd906064016020604051808303816000875af1158015611574573d6000803e3d6000fd5b505050506040513d601f19601f820116820180604052508101906115989190611b60565b5060405163a9059cbb60e01b8152336004820152602481018490526001600160a01b0386169063a9059cbb906044016020604051808303816000875af11580156115e6573d6000803e3d6000fd5b505050506040513d601f19601f8201168201806040525081019061160a9190611b60565b50846001600160a01b031688602001516001600160a01b0316336001600160a01b03167fcd3829a3813dc3cdd188fd3d01dcf3268c16be2fdd2dd21d0665418816e460628442604051611667929190918252602082015260400190565b60405180910390a4505050505050505050565b6001600160a01b0391821660009081526003602052604080822095909555911681529190912055565b6000600382111561170457508060006116bd600283611abc565b6116c8906001611b82565b90505b818110156116fe579050806002816116e38186611abc565b6116ed9190611b82565b6116f79190611abc565b90506116cb565b50919050565b811561170e575060015b919050565b6000818311156117235781611725565b825b9392505050565b6001600160a01b0381168114610eac57600080fd5b600080600080600080600060e0888a03121561175c57600080fd5b87356117678161172c565b965060208801359550604088013561177e8161172c565b969995985095966060810135965060808101359560a0820135955060c0909101359350915050565b6000602082840312156117b857600080fd5b81356117258161172c565b602080825282518282018190526000919060409081850190868401855b8281101561183c57815180516001600160a01b03908116865287820151811688870152868201511686860152606080820151908601526080808201519086015260a0908101519085015260c090930192908501906001016117e0565b5091979650505050505050565b6000806000806080858703121561185f57600080fd5b843593506020850135925060408501356118788161172c565b915060608501356118888161172c565b939692955090935050565b600080600080608085870312156118a957600080fd5b5050823594602084013594506040840135936060013592509050565b6000806000606084860312156118da57600080fd5b8335925060208401356118ec8161172c565b915060408401356118fc8161172c565b809150509250925092565b634e487b7160e01b600052604160045260246000fd5b60405160a0810167ffffffffffffffff8111828210171561194057611940611907565b60405290565b604051601f8201601f1916810167ffffffffffffffff8111828210171561196f5761196f611907565b604052919050565b6000602080838503121561198a57600080fd5b825167ffffffffffffffff808211156119a257600080fd5b818501915085601f8301126119b657600080fd5b8151818111156119c8576119c8611907565b6119d6848260051b01611946565b818152848101925060a09182028401850191888311156119f557600080fd5b938501935b82851015611a655780858a031215611a125760008081fd5b611a1a61191d565b8551611a258161172c565b815285870151611a348161172c565b81880152604086810151908201526060808701519082015260808087015190820152845293840193928501926119fa565b50979650505050505050565b634e487b7160e01b600052603260045260246000fd5b634e487b7160e01b600052601160045260246000fd5b6000816000190483118215151615611ab757611ab7611a87565b500290565b600082611ad957634e487b7160e01b600052601260045260246000fd5b500490565b600060208284031215611af057600080fd5b5051919050565b6000600019821415611b0b57611b0b611a87565b5060010190565b6020808252602e908201527f496e697469616c697a61626c653a20636f6e747261637420697320616c72656160408201526d191e481a5b9a5d1a585b1a5e995960921b606082015260800190565b600060208284031215611b7257600080fd5b8151801515811461172557600080fd5b60008219821115611b9557611b95611a87565b500190565b600082821015611bac57611bac611a87565b50039056fea26469706673582212203c4fbca5f22ea5cb15cdca5bf1394eca93b3cb8c466c1780661ec62e2246672464736f6c634300080a0033",
  "linkReferences": {},
  "deployedLinkReferences": {}
}