{
  "_format": "hh-sol-artifact-1",
  "contractName": "TokenizedShares",
  "sourceName": "contracts/TokenizedShares.sol",
  "abi": [
    {
      "anonymous": false,
      "inputs": [
        {
          "indexed": false,
          "internalType": "uint8",
          "name": "version",
          "type": "uint8"
        }
      ],
      "name": "Initialized",
      "type": "event"
    },
    {
      "anonymous": false,
      "inputs": [
        {
          "indexed": true,
          "internalType": "address",
          "name": "buyer",
          "type": "address"
        },
        {
          "indexed": false,
          "internalType": "uint256",
          "name": "buyAmount",
          "type": "uint256"
        },
        {
          "indexed": false,
          "internalType": "uint256",
          "name": "buyPrice",
          "type": "uint256"
        },
        {
          "indexed": false,
          "internalType": "uint256",
          "name": "weiAmount",
          "type": "uint256"
        },
        {
          "indexed": false,
          "internalType": "uint256",
          "name": "time",
          "type": "uint256"
        }
      ],
      "name": "ShareBought",
      "type": "event"
    },
    {
      "anonymous": false,
      "inputs": [
        {
          "indexed": true,
          "internalType": "address",
          "name": "buyer",
          "type": "address"
        },
        {
          "indexed": false,
          "internalType": "uint256",
          "name": "buyAmount",
          "type": "uint256"
        },
        {
          "indexed": false,
          "internalType": "uint256",
          "name": "buyPrice",
          "type": "uint256"
        },
        {
          "indexed": false,
          "internalType": "uint256",
          "name": "weiAmount",
          "type": "uint256"
        },
        {
          "indexed": false,
          "internalType": "uint256",
          "name": "time",
          "type": "uint256"
        }
      ],
      "name": "ShareSold",
      "type": "event"
    },
    {
      "inputs": [
        {
          "internalType": "address",
          "name": "tokenOwner",
          "type": "address"
        },
        {
          "internalType": "uint256",
          "name": "amtIn",
          "type": "uint256"
        },
        {
          "internalType": "uint256",
          "name": "amtOut",
          "type": "uint256"
        },
        {
          "internalType": "uint256",
          "name": "tokenInPrice",
          "type": "uint256"
        },
        {
          "internalType": "uint256",
          "name": "tokenOutPrice",
          "type": "uint256"
        },
        {
          "internalType": "address",
          "name": "tokenIn",
          "type": "address"
        },
        {
          "internalType": "address",
          "name": "tokenOut",
          "type": "address"
        }
      ],
      "name": "AddUpdateShare",
      "outputs": [],
      "stateMutability": "nonpayable",
      "type": "function"
    },
    {
      "inputs": [
        {
          "internalType": "uint256",
          "name": "buyAmount",
          "type": "uint256"
        },
        {
          "internalType": "uint256",
          "name": "_currentPriceInUSD",
          "type": "uint256"
        },
        {
          "internalType": "uint256",
          "name": "exchangeRate",
          "type": "uint256"
        },
        {
          "internalType": "address",
          "name": "tokenAddress",
          "type": "address"
        }
      ],
      "name": "buyShares",
      "outputs": [],
      "stateMutability": "payable",
      "type": "function"
    },
    {
      "inputs": [
        {
          "internalType": "uint256",
          "name": "_amountIn",
          "type": "uint256"
        },
        {
          "internalType": "uint256",
          "name": "price",
          "type": "uint256"
        }
      ],
      "name": "get",
      "outputs": [
        {
          "internalType": "uint256",
          "name": "tokenInAmt",
          "type": "uint256"
        }
      ],
      "stateMutability": "pure",
      "type": "function"
    },
    {
      "inputs": [],
      "name": "getOwners",
      "outputs": [
        {
          "internalType": "address[]",
          "name": "",
          "type": "address[]"
        }
      ],
      "stateMutability": "view",
      "type": "function"
    },
    {
      "inputs": [
        {
          "internalType": "address",
          "name": "user",
          "type": "address"
        }
      ],
      "name": "getUserShares",
      "outputs": [
        {
          "components": [
            {
              "internalType": "address",
              "name": "owner",
              "type": "address"
            },
            {
              "internalType": "address",
              "name": "tokenAddress",
              "type": "address"
            },
            {
              "internalType": "uint256",
              "name": "buyAmount",
              "type": "uint256"
            },
            {
              "internalType": "uint256",
              "name": "buyPrice",
              "type": "uint256"
            },
            {
              "internalType": "uint256",
              "name": "tokenAmt",
              "type": "uint256"
            }
          ],
          "internalType": "struct TokenizedShares.Share[]",
          "name": "",
          "type": "tuple[]"
        }
      ],
      "stateMutability": "view",
      "type": "function"
    },
    {
      "inputs": [],
      "name": "initial",
      "outputs": [],
      "stateMutability": "nonpayable",
      "type": "function"
    },
    {
      "inputs": [],
      "name": "initialize",
      "outputs": [],
      "stateMutability": "nonpayable",
      "type": "function"
    },
    {
      "inputs": [],
      "name": "owner",
      "outputs": [
        {
          "internalType": "address",
          "name": "",
          "type": "address"
        }
      ],
      "stateMutability": "view",
      "type": "function"
    },
    {
      "inputs": [
        {
          "internalType": "uint256",
          "name": "",
          "type": "uint256"
        }
      ],
      "name": "owners",
      "outputs": [
        {
          "internalType": "address",
          "name": "",
          "type": "address"
        }
      ],
      "stateMutability": "view",
      "type": "function"
    },
    {
      "inputs": [
        {
          "internalType": "address",
          "name": "_owner",
          "type": "address"
        }
      ],
      "name": "removeOwners",
      "outputs": [],
      "stateMutability": "nonpayable",
      "type": "function"
    },
    {
      "inputs": [
        {
          "internalType": "uint256",
          "name": "amount",
          "type": "uint256"
        },
        {
          "internalType": "uint256",
          "name": "exchangeRate",
          "type": "uint256"
        }
      ],
      "name": "requiredEth",
      "outputs": [
        {
          "internalType": "uint256",
          "name": "weiAmount",
          "type": "uint256"
        }
      ],
      "stateMutability": "pure",
      "type": "function"
    },
    {
      "inputs": [
        {
          "internalType": "uint256",
          "name": "sellAmount",
          "type": "uint256"
        },
        {
          "internalType": "uint256",
          "name": "_currentPriceInUSD",
          "type": "uint256"
        },
        {
          "internalType": "uint256",
          "name": "exchangeRate",
          "type": "uint256"
        },
        {
          "internalType": "uint256",
          "name": "selectedFee",
          "type": "uint256"
        },
        {
          "internalType": "address",
          "name": "tokenAddress",
          "type": "address"
        }
      ],
      "name": "sellShares",
      "outputs": [],
      "stateMutability": "nonpayable",
      "type": "function"
    },
    {
      "inputs": [
        {
          "internalType": "address",
          "name": "_owner",
          "type": "address"
        }
      ],
      "name": "setOwners",
      "outputs": [],
      "stateMutability": "nonpayable",
      "type": "function"
    },
    {
      "inputs": [
        {
          "internalType": "address",
          "name": "",
          "type": "address"
        },
        {
          "internalType": "uint256",
          "name": "",
          "type": "uint256"
        }
      ],
      "name": "shareOwner",
      "outputs": [
        {
          "internalType": "address",
          "name": "owner",
          "type": "address"
        },
        {
          "internalType": "address",
          "name": "tokenAddress",
          "type": "address"
        },
        {
          "internalType": "uint256",
          "name": "buyAmount",
          "type": "uint256"
        },
        {
          "internalType": "uint256",
          "name": "buyPrice",
          "type": "uint256"
        },
        {
          "internalType": "uint256",
          "name": "tokenAmt",
          "type": "uint256"
        }
      ],
      "stateMutability": "view",
      "type": "function"
    },
    {
      "inputs": [
        {
          "internalType": "uint256",
          "name": "amountIn",
          "type": "uint256"
        },
        {
          "internalType": "uint256",
          "name": "selectedFee",
          "type": "uint256"
        },
        {
          "internalType": "uint256",
          "name": "exchangeRate",
          "type": "uint256"
        }
      ],
      "name": "transferFees",
      "outputs": [
        {
          "internalType": "uint256",
          "name": "amt",
          "type": "uint256"
        }
      ],
      "stateMutability": "nonpayable",
      "type": "function"
    },
    {
      "inputs": [],
      "name": "transferFundsToOwner",
      "outputs": [],
      "stateMutability": "nonpayable",
      "type": "function"
    },
    {
      "stateMutability": "payable",
      "type": "receive"
    }
  ],
  "bytecode": "0x608060405234801561001057600080fd5b506122b0806100206000396000f3fe6080604052600436106100f75760003560e01c80638da5cb5b1161008a578063ba0cb22b11610059578063ba0cb22b146102cd578063bb806dc9146102fa578063db374c311461030f578063ec8af07d1461032f57600080fd5b80638da5cb5b14610218578063a0e67e2b14610238578063a2797b5e1461025a578063b64c14fe146102ad57600080fd5b8063669e48aa116100c6578063669e48aa14610195578063796ccbca146101c35780638129fc1c146101e357806387288106146101f857600080fd5b8063025e7c27146101035780630756cbe91461014057806307668ada1461015557806331887dfc1461017557600080fd5b366100fe57005b600080fd5b34801561010f57600080fd5b5061012361011e366004611e1e565b610344565b6040516001600160a01b0390911681526020015b60405180910390f35b61015361014e366004611e53565b61036e565b005b34801561016157600080fd5b50610153610170366004611e92565b61081c565b34801561018157600080fd5b50610153610190366004611edb565b610e5a565b3480156101a157600080fd5b506101b56101b0366004611f45565b611462565b604051908152602001610137565b3480156101cf57600080fd5b506101b56101de366004611f67565b6114b6565b3480156101ef57600080fd5b506101536115fa565b34801561020457600080fd5b506101b5610213366004611f45565b6116cf565b34801561022457600080fd5b50600254610123906001600160a01b031681565b34801561024457600080fd5b5061024d6116fa565b6040516101379190611f93565b34801561026657600080fd5b5061027a610275366004611fe0565b611787565b604080516001600160a01b039687168152959094166020860152928401919091526060830152608082015260a001610137565b3480156102b957600080fd5b506101536102c836600461200a565b6117e2565b3480156102d957600080fd5b506102ed6102e836600461200a565b611915565b6040516101379190612025565b34801561030657600080fd5b50610153611b28565b34801561031b57600080fd5b5061015361032a36600461200a565b611be7565b34801561033b57600080fd5b50610153611cfa565b6003818154811061035457600080fd5b6000918252602090912001546001600160a01b0316905081565b610376611dac565b6000841161039f5760405162461bcd60e51b81526004016103969061209f565b60405180910390fd5b6000606460326103af85886120f9565b6103b99190612118565b6103c39190612130565b9050803410156104045760405162461bcd60e51b815260206004820152600c60248201526b080f081dd95a505b5bdd5b9d60a21b6044820152606401610396565b3360009081526004602052604081209080805b835481101561047957856001600160a01b031684828154811061043c5761043c612152565b60009182526020909120600160059092020101546001600160a01b0316141561046757600192508091505b8061047181612168565b915050610417565b5081156105ee57600083828154811061049457610494612152565b9060005260206000209060050201600301548483815481106104b8576104b8612152565b906000526020600020906005020160020154896104d591906120f9565b6104df9190612130565b905060006104ed828b612118565b905060006104fb8b8b611462565b90508086858154811061051057610510612152565b906000526020600020906005020160040160008282546105309190612118565b925050819055508186858154811061054a5761054a612152565b9060005260206000209060050201600201819055508986858154811061057257610572612152565b60009182526020909120600590910201600301556040516340c10f1960e01b8152336004820152602481018290526001600160a01b038916906340c10f1990604401600060405180830381600087803b1580156105ce57600080fd5b505af11580156105e2573d6000803e3d6000fd5b50505050505050610779565b60006105fa8989611462565b905060006040518060a00160405280336001600160a01b03168152602001886001600160a01b031681526020018b81526020018a815260200183815250905060046000336001600160a01b03166001600160a01b0316815260200190815260200160002081908060018154018082558091505060019003906000526020600020906005020160009091909190915060008201518160000160006101000a8154816001600160a01b0302191690836001600160a01b0316021790555060208201518160010160006101000a8154816001600160a01b0302191690836001600160a01b031602179055506040820151816002015560608201518160030155608082015181600401555050866001600160a01b03166340c10f1933846040518363ffffffff1660e01b81526004016107449291906001600160a01b03929092168252602082015260400190565b600060405180830381600087803b15801561075e57600080fd5b505af1158015610772573d6000803e3d6000fd5b5050505050505b833411156107c057600061078d8534612183565b604051909150339082156108fc029083906000818181858888f193505050501580156107bd573d6000803e3d6000fd5b50505b604080518981526020810189905290810185905242606082015233907f6c3a4ba1b12819ce85a9d2279104a5e2f67e7a715435b2c7e6699b9e3454c7719060800160405180910390a25050505061081660018055565b50505050565b610824611dac565b600085116108825760405162461bcd60e51b815260206004820152602560248201527f53656c6c20616d6f756e74206d7573742062652067726561746572207468616e604482015264207a65726f60d81b6064820152608401610396565b33600090815260046020526040902080546108df5760405162461bcd60e51b815260206004820152601b60248201527f4e6f20736861726573206f776e656420627920746865207573657200000000006044820152606401610396565b805460009081906109285760405162461bcd60e51b8152602060048201526013602482015272092dcecc2d8d2c840e6d0c2e4ca40d2dcc8caf606b1b6044820152606401610396565b60005b835481101561098d57846001600160a01b031684828154811061095057610950612152565b60009182526020909120600160059092020101546001600160a01b0316141561097b57600192508091505b8061098581612168565b91505061092b565b50816109c75760405162461bcd60e51b81526020600482015260096024820152681b9bdd08195e1a5cdd60ba1b6044820152606401610396565b60008382815481106109db576109db612152565b9060005260206000209060050201600301548483815481106109ff576109ff612152565b90600052602060002090600502016002015489610a1c91906120f9565b610a269190612130565b905080848381548110610a3b57610a3b612152565b90600052602060002090600502016002018190555088811015610aa05760405162461bcd60e51b815260206004820152601b60248201527f496e73756666696369656e742073686172657320746f2073656c6c00000000006044820152606401610396565b6000610aad8a888a6114b6565b90506000610abb828c612183565b9050600060646032610acd8c856120f9565b610ad79190612118565b610ae19190612130565b90506000610aef8d8d611462565b604051632770a7eb60e21b8152336004820152602481018290529091506001600160a01b038a1690639dc29fac90604401600060405180830381600087803b158015610b3a57600080fd5b505af1158015610b4e573d6000803e3d6000fd5b50505050878681548110610b6457610b64612152565b9060005260206000209060050201600201548d1415610cd457878681548110610b8f57610b8f612152565b60009182526020822060059091020180546001600160a01b0319908116825560018083018054909216909155600282018390556003820183905560049091019190915588541115610c7b5787548890610bea90600190612183565b81548110610bfa57610bfa612152565b9060005260206000209060050201888781548110610c1a57610c1a612152565b60009182526020909120825460059092020180546001600160a01b039283166001600160a01b031991821617825560018085015490830180549190941691161790915560028083015490820155600380830154908201556004918201549101555b87805480610c8b57610c8b61219a565b60008281526020812060056000199093019283020180546001600160a01b0319908116825560018201805490911690556002810182905560038101829055600401559055610d6f565b8c888781548110610ce757610ce7612152565b90600052602060002090600502016002016000828254610d079190612183565b925050819055508b888781548110610d2157610d21612152565b90600052602060002090600502016003018190555080888781548110610d4957610d49612152565b90600052602060002090600502016004016000828254610d699190612183565b90915550505b604051600090339084908381818185875af1925050503d8060008114610db1576040519150601f19603f3d011682016040523d82523d6000602084013e610db6565b606091505b5050905080610df85760405162461bcd60e51b815260206004820152600e60248201526d14185e5b595b9d0819985a5b195960921b6044820152606401610396565b604080518f8152602081018f905290810184905242606082015233907f60519d5e0538973f48e57319ac72d7cde73e6cb9f525c15a4cae32b84237f94d9060800160405180910390a2505050505050505050610e5360018055565b5050505050565b6001600160a01b038716610ea65760405162461bcd60e51b815260206004820152601360248201527224b73b30b634b2103a37b5b2b71037bbb732b960691b6044820152606401610396565b60008511610ec65760405162461bcd60e51b81526004016103969061209f565b60008611610ee65760405162461bcd60e51b81526004016103969061209f565b60008411610f065760405162461bcd60e51b8152600401610396906121b0565b60008311610f265760405162461bcd60e51b8152600401610396906121b0565b6001600160a01b038216610f745760405162461bcd60e51b8152602060048201526015602482015274496e76616c696420746f6b656e206164647265737360581b6044820152606401610396565b6001600160a01b038116610fc25760405162461bcd60e51b8152602060048201526015602482015274496e76616c696420746f6b656e206164647265737360581b6044820152606401610396565b6001600160a01b038716600090815260046020526040812090610fe58887611462565b90506000610ff38887611462565b90506000805b845481101561113057856001600160a01b031685828154811061101e5761101e612152565b60009182526020909120600160059092020101546001600160a01b0316141561111e57600191508985828154811061105857611058612152565b9060005260206000209060050201600201546110749190612118565b85828154811061108657611086612152565b906000526020600020906005020160020181905550878582815481106110ae576110ae612152565b906000526020600020906005020160030181905550828582815481106110d6576110d6612152565b9060005260206000209060050201600401546110f29190612118565b85828154811061110457611104612152565b906000526020600020906005020160040181905550611130565b8061112881612168565b915050610ff9565b50806111c8576040805160a0810182526001600160a01b03808e16825287811660208084019182529383018d8152606084018c8152608085018881528a5460018181018d5560008d8152989098209651600590910290960180549686166001600160a01b0319978816178155935196840180549790951696909516959095179092559051600282015591516003830155516004909101555b60005b84548110156114545760008582815481106111e8576111e8612152565b90600052602060002090600502016003015486838154811061120c5761120c612152565b9060005260206000209060050201600201548b61122991906120f9565b6112339190612130565b9050876001600160a01b031686838154811061125157611251612152565b60009182526020909120600160059092020101546001600160a01b03161415611441578b81141561138b57855461128a90600190612183565b82101561133257855486906112a190600190612183565b815481106112b1576112b1612152565b90600052602060002090600502018683815481106112d1576112d1612152565b60009182526020909120825460059092020180546001600160a01b039283166001600160a01b031991821617825560018085015490830180549190941691161790915560028083015490820155600380830154908201556004918201549101555b858054806113425761134261219a565b60008281526020812060056000199093019283020180546001600160a01b031990811682556001820180549091169055600281018290556003810182905560040155905561143b565b6113958c82612183565b8683815481106113a7576113a7612152565b906000526020600020906005020160020181905550898683815481106113cf576113cf612152565b906000526020600020906005020160030181905550848683815481106113f7576113f7612152565b9060005260206000209060050201600401546114139190612183565b86838154811061142557611425612152565b9060005260206000209060050201600401819055505b50611454565b508061144c81612168565b9150506111cb565b505050505050505050505050565b60008061147784670de0b6b3a76400006120f9565b9050600061148d84670de0b6b3a76400006120f9565b9050670de0b6b3a76400006114ac826114a68584611e06565b90611e12565b9695505050505050565b60006127106114c58482612183565b6114cf90866120f9565b6114d99190612130565b90506114e58185612183565b90506000606460326114f785856120f9565b6115019190612118565b61150b9190612130565b60035490915060009061151e9083612130565b905060005b6003548110156115f05760006003828154811061154257611542612152565b60009182526020822001546040516001600160a01b039091169185919081818185875af1925050503d8060008114611596576040519150601f19603f3d011682016040523d82523d6000602084013e61159b565b606091505b50509050806115dd5760405162461bcd60e51b815260206004820152600e60248201526d14185e5b595b9d0819985a5b195960921b6044820152606401610396565b50806115e881612168565b915050611523565b5050509392505050565b600054610100900460ff161580801561161a5750600054600160ff909116105b806116345750303b158015611634575060005460ff166001145b6116505760405162461bcd60e51b8152600401610396906121f3565b6000805460ff191660011790558015611673576000805461ff0019166101001790555b600280546001600160a01b0319163317905580156116cc576000805461ff0019169055604051600181527f7f26b83ff96e1f2b6a682f133852f6798a09c465da95921460cefb3847402498906020015b60405180910390a15b50565b6000606460326116df84866120f9565b6116e99190612118565b6116f39190612130565b9392505050565b6002546060906001600160a01b031633146117275760405162461bcd60e51b815260040161039690612241565b600380548060200260200160405190810160405280929190818152602001828054801561177d57602002820191906000526020600020905b81546001600160a01b0316815260019091019060200180831161175f575b5050505050905090565b600460205281600052604060002081815481106117a357600080fd5b6000918252602090912060059091020180546001820154600283015460038401546004909401546001600160a01b039384169650929091169350919085565b6002546001600160a01b0316331461180c5760405162461bcd60e51b815260040161039690612241565b60005b60035481101561191157816001600160a01b03166003828154811061183657611836612152565b6000918252602090912001546001600160a01b031614156118ff576003805461186190600190612183565b8154811061187157611871612152565b600091825260209091200154600380546001600160a01b03909216918390811061189d5761189d612152565b9060005260206000200160006101000a8154816001600160a01b0302191690836001600160a01b0316021790555060038054806118dc576118dc61219a565b600082815260209020810160001990810180546001600160a01b03191690550190555b8061190981612168565b91505061180f565b5050565b6001600160a01b0381166000908152600460205260408120606091805b825481101561199757846001600160a01b031683828154811061195757611957612152565b60009182526020909120600590910201546001600160a01b03161415611985578161198181612168565b9250505b8061198f81612168565b915050611932565b5060008167ffffffffffffffff8111156119b3576119b3612264565b604051908082528060200260200182016040528015611a2857816020015b611a156040518060a0016040528060006001600160a01b0316815260200160006001600160a01b031681526020016000815260200160008152602001600081525090565b8152602001906001900390816119d15790505b5090506000805b8454811015611b1d57866001600160a01b0316858281548110611a5457611a54612152565b60009182526020909120600590910201546001600160a01b03161415611b0b57848181548110611a8657611a86612152565b60009182526020918290206040805160a081018252600590930290910180546001600160a01b039081168452600182015416938301939093526002830154908201526003820154606082015260049091015460808201528351849084908110611af157611af1612152565b60200260200101819052508180611b0790612168565b9250505b80611b1581612168565b915050611a2f565b509095945050505050565b600054610100900460ff1615808015611b485750600054600160ff909116105b80611b625750303b158015611b62575060005460ff166001145b611b7e5760405162461bcd60e51b8152600401610396906121f3565b6000805460ff191660011790558015611ba1576000805461ff0019166101001790555b6001805580156116cc576000805461ff0019169055604051600181527f7f26b83ff96e1f2b6a682f133852f6798a09c465da95921460cefb3847402498906020016116c3565b6002546001600160a01b03163314611c115760405162461bcd60e51b815260040161039690612241565b60005b600354811015611ca757816001600160a01b031660038281548110611c3b57611c3b612152565b6000918252602090912001546001600160a01b03161415611c955760405162461bcd60e51b81526020600482015260146024820152734f776e657220616c72656164792065786973747360601b6044820152606401610396565b80611c9f81612168565b915050611c14565b50600380546001810182556000919091527fc2575a0e9e593c00f959f8c92f12db2869c3395a3b0502d05e2516446f71f85b0180546001600160a01b0319166001600160a01b0392909216919091179055565b6002546001600160a01b03163314611d245760405162461bcd60e51b815260040161039690612241565b4780611d725760405162461bcd60e51b815260206004820152601860248201527f436f6e74726163742062616c616e6365206973207a65726f00000000000000006044820152606401610396565b6002546040516001600160a01b039091169082156108fc029083906000818181858888f19350505050158015611911573d6000803e3d6000fd5b60026001541415611dff5760405162461bcd60e51b815260206004820152601f60248201527f5265656e7472616e637947756172643a207265656e7472616e742063616c6c006044820152606401610396565b6002600155565b60006116f382846120f9565b60006116f38284612130565b600060208284031215611e3057600080fd5b5035919050565b80356001600160a01b0381168114611e4e57600080fd5b919050565b60008060008060808587031215611e6957600080fd5b843593506020850135925060408501359150611e8760608601611e37565b905092959194509250565b600080600080600060a08688031215611eaa57600080fd5b85359450602086013593506040860135925060608601359150611ecf60808701611e37565b90509295509295909350565b600080600080600080600060e0888a031215611ef657600080fd5b611eff88611e37565b965060208801359550604088013594506060880135935060808801359250611f2960a08901611e37565b9150611f3760c08901611e37565b905092959891949750929550565b60008060408385031215611f5857600080fd5b50508035926020909101359150565b600080600060608486031215611f7c57600080fd5b505081359360208301359350604090920135919050565b6020808252825182820181905260009190848201906040850190845b81811015611fd45783516001600160a01b031683529284019291840191600101611faf565b50909695505050505050565b60008060408385031215611ff357600080fd5b611ffc83611e37565b946020939093013593505050565b60006020828403121561201c57600080fd5b6116f382611e37565b602080825282518282018190526000919060409081850190868401855b8281101561209257815180516001600160a01b0390811686528782015116878601528581015186860152606080820151908601526080908101519085015260a09093019290850190600101612042565b5091979650505050505050565b60208082526024908201527f42757920616d6f756e74206d7573742062652067726561746572207468616e206040820152637a65726f60e01b606082015260800190565b634e487b7160e01b600052601160045260246000fd5b6000816000190483118215151615612113576121136120e3565b500290565b6000821982111561212b5761212b6120e3565b500190565b60008261214d57634e487b7160e01b600052601260045260246000fd5b500490565b634e487b7160e01b600052603260045260246000fd5b600060001982141561217c5761217c6120e3565b5060010190565b600082821015612195576121956120e3565b500390565b634e487b7160e01b600052603160045260246000fd5b60208082526023908201527f427579207072696365206d7573742062652067726561746572207468616e207a60408201526265726f60e81b606082015260800190565b6020808252602e908201527f496e697469616c697a61626c653a20636f6e747261637420697320616c72656160408201526d191e481a5b9a5d1a585b1a5e995960921b606082015260800190565b6020808252600990820152682737ba1037bbb732b960b91b604082015260600190565b634e487b7160e01b600052604160045260246000fdfea26469706673582212209ee3528a7b2657a6eb17b0fa7c2663852f069e1e93809869502365a6cc3a644764736f6c634300080a0033",
  "linkReferences": {},
  "deployedLinkReferences": {}
}