{
  "_format": "hh-sol-artifact-1",
  "contractName": "TokenizedShares",
  "sourceName": "contracts/TokenizedShares.sol",
  "abi": [
    {
      "inputs": [],
      "stateMutability": "nonpayable",
      "type": "constructor"
    },
    {
      "anonymous": false,
      "inputs": [
        {
          "indexed": true,
          "internalType": "address",
          "name": "buyer",
          "type": "address"
        },
        {
          "indexed": false,
          "internalType": "uint256",
          "name": "buyAmount",
          "type": "uint256"
        },
        {
          "indexed": false,
          "internalType": "uint256",
          "name": "buyPrice",
          "type": "uint256"
        },
        {
          "indexed": false,
          "internalType": "uint256",
          "name": "weiAmount",
          "type": "uint256"
        },
        {
          "indexed": false,
          "internalType": "uint256",
          "name": "time",
          "type": "uint256"
        }
      ],
      "name": "ShareBought",
      "type": "event"
    },
    {
      "anonymous": false,
      "inputs": [
        {
          "indexed": true,
          "internalType": "address",
          "name": "buyer",
          "type": "address"
        },
        {
          "indexed": false,
          "internalType": "uint256",
          "name": "buyAmount",
          "type": "uint256"
        },
        {
          "indexed": false,
          "internalType": "uint256",
          "name": "buyPrice",
          "type": "uint256"
        },
        {
          "indexed": false,
          "internalType": "uint256",
          "name": "weiAmount",
          "type": "uint256"
        },
        {
          "indexed": false,
          "internalType": "uint256",
          "name": "time",
          "type": "uint256"
        }
      ],
      "name": "ShareSold",
      "type": "event"
    },
    {
      "inputs": [
        {
          "internalType": "address",
          "name": "tokenOwner",
          "type": "address"
        },
        {
          "internalType": "uint256",
          "name": "amtIn",
          "type": "uint256"
        },
        {
          "internalType": "uint256",
          "name": "amtOut",
          "type": "uint256"
        },
        {
          "internalType": "uint256",
          "name": "tokenInAmt",
          "type": "uint256"
        },
        {
          "internalType": "uint256",
          "name": "tokenOutAmt",
          "type": "uint256"
        },
        {
          "internalType": "uint256",
          "name": "tokenInPrice",
          "type": "uint256"
        },
        {
          "internalType": "uint256",
          "name": "tokenOutPrice",
          "type": "uint256"
        },
        {
          "internalType": "address",
          "name": "tokenIn",
          "type": "address"
        },
        {
          "internalType": "address",
          "name": "tokenOut",
          "type": "address"
        }
      ],
      "name": "AddUpdateShare",
      "outputs": [],
      "stateMutability": "nonpayable",
      "type": "function"
    },
    {
      "inputs": [
        {
          "internalType": "uint256",
          "name": "buyAmount",
          "type": "uint256"
        },
        {
          "internalType": "uint256",
          "name": "_currentPriceInUSD",
          "type": "uint256"
        },
        {
          "internalType": "uint256",
          "name": "exchangeRate",
          "type": "uint256"
        },
        {
          "internalType": "address",
          "name": "tokenAddress",
          "type": "address"
        }
      ],
      "name": "buyShares",
      "outputs": [],
      "stateMutability": "payable",
      "type": "function"
    },
    {
      "inputs": [
        {
          "internalType": "uint256",
          "name": "_amountIn",
          "type": "uint256"
        },
        {
          "internalType": "uint256",
          "name": "price",
          "type": "uint256"
        }
      ],
      "name": "get",
      "outputs": [
        {
          "internalType": "uint256",
          "name": "tokenInAmt",
          "type": "uint256"
        }
      ],
      "stateMutability": "pure",
      "type": "function"
    },
    {
      "inputs": [
        {
          "internalType": "address",
          "name": "user",
          "type": "address"
        }
      ],
      "name": "getUserShares",
      "outputs": [
        {
          "components": [
            {
              "internalType": "address",
              "name": "owner",
              "type": "address"
            },
            {
              "internalType": "address",
              "name": "tokenAddress",
              "type": "address"
            },
            {
              "internalType": "uint256",
              "name": "buyAmount",
              "type": "uint256"
            },
            {
              "internalType": "uint256",
              "name": "buyPrice",
              "type": "uint256"
            },
            {
              "internalType": "uint256",
              "name": "tokenAmt",
              "type": "uint256"
            }
          ],
          "internalType": "struct TokenizedShares.Share[]",
          "name": "",
          "type": "tuple[]"
        }
      ],
      "stateMutability": "view",
      "type": "function"
    },
    {
      "inputs": [],
      "name": "owner",
      "outputs": [
        {
          "internalType": "address",
          "name": "",
          "type": "address"
        }
      ],
      "stateMutability": "view",
      "type": "function"
    },
    {
      "inputs": [
        {
          "internalType": "uint256",
          "name": "amount",
          "type": "uint256"
        },
        {
          "internalType": "uint256",
          "name": "exchangeRate",
          "type": "uint256"
        }
      ],
      "name": "requiredEth",
      "outputs": [
        {
          "internalType": "uint256",
          "name": "weiAmount",
          "type": "uint256"
        }
      ],
      "stateMutability": "pure",
      "type": "function"
    },
    {
      "inputs": [
        {
          "internalType": "uint256",
          "name": "sellAmount",
          "type": "uint256"
        },
        {
          "internalType": "uint256",
          "name": "_currentPriceInUSD",
          "type": "uint256"
        },
        {
          "internalType": "uint256",
          "name": "exchangeRate",
          "type": "uint256"
        },
        {
          "internalType": "address",
          "name": "tokenAddress",
          "type": "address"
        }
      ],
      "name": "sellShares",
      "outputs": [],
      "stateMutability": "nonpayable",
      "type": "function"
    },
    {
      "inputs": [
        {
          "internalType": "address",
          "name": "",
          "type": "address"
        },
        {
          "internalType": "uint256",
          "name": "",
          "type": "uint256"
        }
      ],
      "name": "shareOwner",
      "outputs": [
        {
          "internalType": "address",
          "name": "owner",
          "type": "address"
        },
        {
          "internalType": "address",
          "name": "tokenAddress",
          "type": "address"
        },
        {
          "internalType": "uint256",
          "name": "buyAmount",
          "type": "uint256"
        },
        {
          "internalType": "uint256",
          "name": "buyPrice",
          "type": "uint256"
        },
        {
          "internalType": "uint256",
          "name": "tokenAmt",
          "type": "uint256"
        }
      ],
      "stateMutability": "view",
      "type": "function"
    },
    {
      "inputs": [
        {
          "internalType": "uint256",
          "name": "amountIn",
          "type": "uint256"
        },
        {
          "internalType": "uint256",
          "name": "selectedFee",
          "type": "uint256"
        },
        {
          "internalType": "uint256",
          "name": "exchangeRate",
          "type": "uint256"
        }
      ],
      "name": "transferFees",
      "outputs": [
        {
          "internalType": "uint256",
          "name": "amt",
          "type": "uint256"
        }
      ],
      "stateMutability": "nonpayable",
      "type": "function"
    },
    {
      "stateMutability": "payable",
      "type": "receive"
    }
  ],
  "bytecode": "0x608060405234801561001057600080fd5b506001600081905580546001600160a01b03191633179055611b4c806100376000396000f3fe60806040526004361061008a5760003560e01c80638728810611610059578063872881061461011e5780638da5cb5b1461013e578063a2797b5e14610176578063a92a509f146101c9578063ba0cb22b146101e957600080fd5b80630756cbe9146100965780630b70c47b146100ab578063669e48aa146100cb578063796ccbca146100fe57600080fd5b3661009157005b600080fd5b6100a96100a436600461179c565b610216565b005b3480156100b757600080fd5b506100a96100c636600461179c565b6106c5565b3480156100d757600080fd5b506100eb6100e63660046117db565b610cfe565b6040519081526020015b60405180910390f35b34801561010a57600080fd5b506100eb6101193660046117fd565b610d52565b34801561012a57600080fd5b506100eb6101393660046117db565b610e49565b34801561014a57600080fd5b5060015461015e906001600160a01b031681565b6040516001600160a01b0390911681526020016100f5565b34801561018257600080fd5b50610196610191366004611829565b610e74565b604080516001600160a01b039687168152959094166020860152928401919091526060830152608082015260a0016100f5565b3480156101d557600080fd5b506100a96101e4366004611853565b610ecf565b3480156101f557600080fd5b506102096102043660046118d1565b6114fb565b6040516100f591906118ec565b61021e61170e565b600084116102475760405162461bcd60e51b815260040161023e90611966565b60405180910390fd5b60006064603261025785886119c0565b61026191906119df565b61026b91906119f7565b9050803410156102ac5760405162461bcd60e51b815260206004820152600c60248201526b080f081dd95a505b5bdd5b9d60a21b604482015260640161023e565b3360009081526002602052604081209080805b835481101561032157856001600160a01b03168482815481106102e4576102e4611a19565b60009182526020909120600160059092020101546001600160a01b0316141561030f57600192508091505b8061031981611a2f565b9150506102bf565b50811561049657600083828154811061033c5761033c611a19565b90600052602060002090600502016003015484838154811061036057610360611a19565b9060005260206000209060050201600201548961037d91906119c0565b61038791906119f7565b90506000610395828b6119df565b905060006103a38b8b610cfe565b9050808685815481106103b8576103b8611a19565b906000526020600020906005020160040160008282546103d891906119df565b92505081905550818685815481106103f2576103f2611a19565b9060005260206000209060050201600201819055508986858154811061041a5761041a611a19565b60009182526020909120600590910201600301556040516340c10f1960e01b8152336004820152602481018290526001600160a01b038916906340c10f1990604401600060405180830381600087803b15801561047657600080fd5b505af115801561048a573d6000803e3d6000fd5b50505050505050610621565b60006104a28989610cfe565b905060006040518060a00160405280336001600160a01b03168152602001886001600160a01b031681526020018b81526020018a815260200183815250905060026000336001600160a01b03166001600160a01b0316815260200190815260200160002081908060018154018082558091505060019003906000526020600020906005020160009091909190915060008201518160000160006101000a8154816001600160a01b0302191690836001600160a01b0316021790555060208201518160010160006101000a8154816001600160a01b0302191690836001600160a01b031602179055506040820151816002015560608201518160030155608082015181600401555050866001600160a01b03166340c10f1933846040518363ffffffff1660e01b81526004016105ec9291906001600160a01b03929092168252602082015260400190565b600060405180830381600087803b15801561060657600080fd5b505af115801561061a573d6000803e3d6000fd5b5050505050505b833411156106685760006106358534611a4a565b604051909150339082156108fc029083906000818181858888f19350505050158015610665573d6000803e3d6000fd5b50505b604080518981526020810189905290810185905242606082015233907f6c3a4ba1b12819ce85a9d2279104a5e2f67e7a715435b2c7e6699b9e3454c7719060800160405180910390a2505050506106bf6001600055565b50505050565b6106cd61170e565b6000841161072b5760405162461bcd60e51b815260206004820152602560248201527f53656c6c20616d6f756e74206d7573742062652067726561746572207468616e604482015264207a65726f60d81b606482015260840161023e565b33600090815260026020526040902080546107885760405162461bcd60e51b815260206004820152601b60248201527f4e6f20736861726573206f776e65642062792074686520757365720000000000604482015260640161023e565b805460009081906107d15760405162461bcd60e51b8152602060048201526013602482015272092dcecc2d8d2c840e6d0c2e4ca40d2dcc8caf606b1b604482015260640161023e565b60005b835481101561083657846001600160a01b03168482815481106107f9576107f9611a19565b60009182526020909120600160059092020101546001600160a01b0316141561082457600192508091505b8061082e81611a2f565b9150506107d4565b50816108705760405162461bcd60e51b81526020600482015260096024820152681b9bdd08195e1a5cdd60ba1b604482015260640161023e565b600083828154811061088457610884611a19565b9060005260206000209060050201600301548483815481106108a8576108a8611a19565b906000526020600020906005020160020154886108c591906119c0565b6108cf91906119f7565b9050808483815481106108e4576108e4611a19565b906000526020600020906005020160020181905550878110156109495760405162461bcd60e51b815260206004820152601b60248201527f496e73756666696369656e742073686172657320746f2073656c6c0000000000604482015260640161023e565b60006109578960fa89610d52565b90506000610965828b611a4a565b90506000606460326109778b856119c0565b61098191906119df565b61098b91906119f7565b905060006109998c8c610cfe565b604051632770a7eb60e21b8152336004820152602481018290529091506001600160a01b038a1690639dc29fac90604401600060405180830381600087803b1580156109e457600080fd5b505af11580156109f8573d6000803e3d6000fd5b50505050878681548110610a0e57610a0e611a19565b9060005260206000209060050201600201548c1415610b7e57878681548110610a3957610a39611a19565b60009182526020822060059091020180546001600160a01b0319908116825560018083018054909216909155600282018390556003820183905560049091019190915588541115610b255787548890610a9490600190611a4a565b81548110610aa457610aa4611a19565b9060005260206000209060050201888781548110610ac457610ac4611a19565b60009182526020909120825460059092020180546001600160a01b039283166001600160a01b031991821617825560018085015490830180549190941691161790915560028083015490820155600380830154908201556004918201549101555b87805480610b3557610b35611a61565b60008281526020812060056000199093019283020180546001600160a01b0319908116825560018201805490911690556002810182905560038101829055600401559055610c19565b8b888781548110610b9157610b91611a19565b90600052602060002090600502016002016000828254610bb19190611a4a565b925050819055508a888781548110610bcb57610bcb611a19565b90600052602060002090600502016003018190555080888781548110610bf357610bf3611a19565b90600052602060002090600502016004016000828254610c139190611a4a565b90915550505b604051600090339084908381818185875af1925050503d8060008114610c5b576040519150601f19603f3d011682016040523d82523d6000602084013e610c60565b606091505b5050905080610ca25760405162461bcd60e51b815260206004820152600e60248201526d14185e5b595b9d0819985a5b195960921b604482015260640161023e565b604080518e8152602081018e905290810184905242606082015233907f60519d5e0538973f48e57319ac72d7cde73e6cb9f525c15a4cae32b84237f94d9060800160405180910390a25050505050505050506106bf6001600055565b600080610d1384670de0b6b3a76400006119c0565b90506000610d2984670de0b6b3a76400006119c0565b9050670de0b6b3a7640000610d4882610d428584611768565b90611774565b9695505050505050565b6000612710610d618482611a4a565b610d6b90866119c0565b610d7591906119f7565b9050610d818185611a4a565b9050600060646032610d9385856119c0565b610d9d91906119df565b610da791906119f7565b6001546040519192506000916001600160a01b039091169083908381818185875af1925050503d8060008114610df9576040519150601f19603f3d011682016040523d82523d6000602084013e610dfe565b606091505b5050905080610e405760405162461bcd60e51b815260206004820152600e60248201526d14185e5b595b9d0819985a5b195960921b604482015260640161023e565b50509392505050565b600060646032610e5984866119c0565b610e6391906119df565b610e6d91906119f7565b9392505050565b60026020528160005260406000208181548110610e9057600080fd5b6000918252602090912060059091020180546001820154600283015460038401546004909401546001600160a01b039384169650929091169350919085565b6001600160a01b038916610f1b5760405162461bcd60e51b815260206004820152601360248201527224b73b30b634b2103a37b5b2b71037bbb732b960691b604482015260640161023e565b60008711610f3b5760405162461bcd60e51b815260040161023e90611966565b60008811610f5b5760405162461bcd60e51b815260040161023e90611966565b60008411610f7b5760405162461bcd60e51b815260040161023e90611a77565b60008311610f9b5760405162461bcd60e51b815260040161023e90611a77565b60008511610fbb5760405162461bcd60e51b815260040161023e90611aba565b60008611610fdb5760405162461bcd60e51b815260040161023e90611aba565b6001600160a01b0382166110295760405162461bcd60e51b8152602060048201526015602482015274496e76616c696420746f6b656e206164647265737360581b604482015260640161023e565b6001600160a01b0381166110775760405162461bcd60e51b8152602060048201526015602482015274496e76616c696420746f6b656e206164647265737360581b604482015260640161023e565b6001600160a01b038916600090815260026020526040812090805b82548110156111c957836001600160a01b03168382815481106110b7576110b7611a19565b60009182526020909120600160059092020101546001600160a01b031614156111b75760019150898382815481106110f1576110f1611a19565b90600052602060002090600502016002015461110d91906119df565b83828154811061111f5761111f611a19565b9060005260206000209060050201600201819055508583828154811061114757611147611a19565b9060005260206000209060050201600301819055508783828154811061116f5761116f611a19565b90600052602060002090600502016004015461118b91906119df565b83828154811061119d5761119d611a19565b9060005260206000209060050201600401819055506111c9565b806111c181611a2f565b915050611092565b5080611261576040805160a0810182526001600160a01b03808e16825285811660208084019182529383018d8152606084018a8152608085018d8152885460018181018b5560008b8152989098209651600590910290960180549686166001600160a01b0319978816178155935196840180549790951696909516959095179092559051600282015591516003830155516004909101555b60005b82548110156114ed57600083828154811061128157611281611a19565b9060005260206000209060050201600301548483815481106112a5576112a5611a19565b906000526020600020906005020160020154896112c291906119c0565b6112cc91906119f7565b9050856001600160a01b03168483815481106112ea576112ea611a19565b60009182526020909120600160059092020101546001600160a01b031614156114da578b81141561142457835461132390600190611a4a565b8210156113cb578354849061133a90600190611a4a565b8154811061134a5761134a611a19565b906000526020600020906005020184838154811061136a5761136a611a19565b60009182526020909120825460059092020180546001600160a01b039283166001600160a01b031991821617825560018085015490830180549190941691161790915560028083015490820155600380830154908201556004918201549101555b838054806113db576113db611a61565b60008281526020812060056000199093019283020180546001600160a01b03199081168255600182018054909116905560028101829055600381018290556004015590556114d4565b61142e8c82611a4a565b84838154811061144057611440611a19565b9060005260206000209060050201600201819055508784838154811061146857611468611a19565b9060005260206000209060050201600301819055508984838154811061149057611490611a19565b9060005260206000209060050201600401546114ac9190611a4a565b8483815481106114be576114be611a19565b9060005260206000209060050201600401819055505b506114ed565b50806114e581611a2f565b915050611264565b505050505050505050505050565b6001600160a01b0381166000908152600260205260408120606091805b825481101561157d57846001600160a01b031683828154811061153d5761153d611a19565b60009182526020909120600590910201546001600160a01b0316141561156b578161156781611a2f565b9250505b8061157581611a2f565b915050611518565b5060008167ffffffffffffffff81111561159957611599611b00565b60405190808252806020026020018201604052801561160e57816020015b6115fb6040518060a0016040528060006001600160a01b0316815260200160006001600160a01b031681526020016000815260200160008152602001600081525090565b8152602001906001900390816115b75790505b5090506000805b845481101561170357866001600160a01b031685828154811061163a5761163a611a19565b60009182526020909120600590910201546001600160a01b031614156116f15784818154811061166c5761166c611a19565b60009182526020918290206040805160a081018252600590930290910180546001600160a01b0390811684526001820154169383019390935260028301549082015260038201546060820152600490910154608082015283518490849081106116d7576116d7611a19565b602002602001018190525081806116ed90611a2f565b9250505b806116fb81611a2f565b915050611615565b509095945050505050565b600260005414156117615760405162461bcd60e51b815260206004820152601f60248201527f5265656e7472616e637947756172643a207265656e7472616e742063616c6c00604482015260640161023e565b6002600055565b6000610e6d82846119c0565b6000610e6d82846119f7565b80356001600160a01b038116811461179757600080fd5b919050565b600080600080608085870312156117b257600080fd5b8435935060208501359250604085013591506117d060608601611780565b905092959194509250565b600080604083850312156117ee57600080fd5b50508035926020909101359150565b60008060006060848603121561181257600080fd5b505081359360208301359350604090920135919050565b6000806040838503121561183c57600080fd5b61184583611780565b946020939093013593505050565b60008060008060008060008060006101208a8c03121561187257600080fd5b61187b8a611780565b985060208a0135975060408a0135965060608a0135955060808a0135945060a08a0135935060c08a013592506118b360e08b01611780565b91506118c26101008b01611780565b90509295985092959850929598565b6000602082840312156118e357600080fd5b610e6d82611780565b602080825282518282018190526000919060409081850190868401855b8281101561195957815180516001600160a01b0390811686528782015116878601528581015186860152606080820151908601526080908101519085015260a09093019290850190600101611909565b5091979650505050505050565b60208082526024908201527f42757920616d6f756e74206d7573742062652067726561746572207468616e206040820152637a65726f60e01b606082015260800190565b634e487b7160e01b600052601160045260246000fd5b60008160001904831182151516156119da576119da6119aa565b500290565b600082198211156119f2576119f26119aa565b500190565b600082611a1457634e487b7160e01b600052601260045260246000fd5b500490565b634e487b7160e01b600052603260045260246000fd5b6000600019821415611a4357611a436119aa565b5060010190565b600082821015611a5c57611a5c6119aa565b500390565b634e487b7160e01b600052603160045260246000fd5b60208082526023908201527f427579207072696365206d7573742062652067726561746572207468616e207a60408201526265726f60e81b606082015260800190565b60208082526026908201527f546f6b656e20616d6f756e74206d7573742062652067726561746572207468616040820152656e207a65726f60d01b606082015260800190565b634e487b7160e01b600052604160045260246000fdfea26469706673582212206fdf335274603bd503ff4a110dedd89e1af579534e55e423c1b4a750f982b6eb64736f6c634300080a0033",
  "linkReferences": {},
  "deployedLinkReferences": {}
}